{
  "contractName": "Shin",
  "abi": [
    {
      "inputs": [
        {
          "internalType": "uint256",
          "name": "",
          "type": "uint256"
        }
      ],
      "name": "dataMap",
      "outputs": [
        {
          "internalType": "string",
          "name": "",
          "type": "string"
        }
      ],
      "stateMutability": "view",
      "type": "function",
      "constant": true
    },
    {
      "inputs": [
        {
          "internalType": "string",
          "name": "value",
          "type": "string"
        }
      ],
      "name": "storeString",
      "outputs": [],
      "stateMutability": "nonpayable",
      "type": "function"
    },
    {
      "inputs": [],
      "name": "getAllData",
      "outputs": [
        {
          "internalType": "uint256[]",
          "name": "",
          "type": "uint256[]"
        },
        {
          "internalType": "string[]",
          "name": "",
          "type": "string[]"
        }
      ],
      "stateMutability": "view",
      "type": "function",
      "constant": true
    }
  ],
  "bytecode": "0x608060405234801561001057600080fd5b50610a0a806100206000396000f3fe608060405234801561001057600080fd5b50600436106100415760003560e01c806308934b94146100465780631bb8305d146100765780632d10fa2814610092575b600080fd5b610060600480360381019061005b9190610530565b6100b1565b60405161006d9190610710565b60405180910390f35b610090600480360381019061008b91906104ef565b610151565b005b61009a6101aa565b6040516100a89291906106d9565b60405180910390f35b600060205280600052604060002060009150905080546100d090610873565b80601f01602080910402602001604051908101604052809291908181526020018280546100fc90610873565b80156101495780601f1061011e57610100808354040283529160200191610149565b820191906000526020600020905b81548152906001019060200180831161012c57829003601f168201915b505050505081565b600042905081600080838152602001908152602001600020908051906020019061017c9291906103cf565b5060018190806001815401808255809150506001900390600052602060002001600090919091909150555050565b606080600060018054905067ffffffffffffffff8111156101f4577f4e487b7100000000000000000000000000000000000000000000000000000000600052604160045260246000fd5b60405190808252806020026020018201604052801561022757816020015b60608152602001906001900390816102125790505b50905060005b6001805490508110156103705760008060018381548110610277577f4e487b7100000000000000000000000000000000000000000000000000000000600052603260045260246000fd5b90600052602060002001548152602001908152602001600020805461029b90610873565b80601f01602080910402602001604051908101604052809291908181526020018280546102c790610873565b80156103145780601f106102e957610100808354040283529160200191610314565b820191906000526020600020905b8154815290600101906020018083116102f757829003601f168201915b5050505050828281518110610352577f4e487b7100000000000000000000000000000000000000000000000000000000600052603260045260246000fd5b60200260200101819052508080610368906108d6565b91505061022d565b50600181818054806020026020016040519081016040528092919081815260200182805480156103bf57602002820191906000526020600020905b8154815260200190600101908083116103ab575b5050505050915092509250509091565b8280546103db90610873565b90600052602060002090601f0160209004810192826103fd5760008555610444565b82601f1061041657805160ff1916838001178555610444565b82800160010185558215610444579182015b82811115610443578251825591602001919060010190610428565b5b5090506104519190610455565b5090565b5b8082111561046e576000816000905550600101610456565b5090565b600061048561048084610757565b610732565b90508281526020810184848401111561049d57600080fd5b6104a8848285610831565b509392505050565b600082601f8301126104c157600080fd5b81356104d1848260208601610472565b91505092915050565b6000813590506104e9816109bd565b92915050565b60006020828403121561050157600080fd5b600082013567ffffffffffffffff81111561051b57600080fd5b610527848285016104b0565b91505092915050565b60006020828403121561054257600080fd5b6000610550848285016104da565b91505092915050565b60006105658383610658565b905092915050565b600061057983836106ca565b60208301905092915050565b6000610590826107a8565b61059a81856107e3565b9350836020820285016105ac85610788565b8060005b858110156105e857848403895281516105c98582610559565b94506105d4836107c9565b925060208a019950506001810190506105b0565b50829750879550505050505092915050565b6000610605826107b3565b61060f81856107f4565b935061061a83610798565b8060005b8381101561064b578151610632888261056d565b975061063d836107d6565b92505060018101905061061e565b5085935050505092915050565b6000610663826107be565b61066d8185610805565b935061067d818560208601610840565b610686816109ac565b840191505092915050565b600061069c826107be565b6106a68185610816565b93506106b6818560208601610840565b6106bf816109ac565b840191505092915050565b6106d381610827565b82525050565b600060408201905081810360008301526106f381856105fa565b905081810360208301526107078184610585565b90509392505050565b6000602082019050818103600083015261072a8184610691565b905092915050565b600061073c61074d565b905061074882826108a5565b919050565b6000604051905090565b600067ffffffffffffffff8211156107725761077161097d565b5b61077b826109ac565b9050602081019050919050565b6000819050602082019050919050565b6000819050602082019050919050565b600081519050919050565b600081519050919050565b600081519050919050565b6000602082019050919050565b6000602082019050919050565b600082825260208201905092915050565b600082825260208201905092915050565b600082825260208201905092915050565b600082825260208201905092915050565b6000819050919050565b82818337600083830152505050565b60005b8381101561085e578082015181840152602081019050610843565b8381111561086d576000848401525b50505050565b6000600282049050600182168061088b57607f821691505b6020821081141561089f5761089e61094e565b5b50919050565b6108ae826109ac565b810181811067ffffffffffffffff821117156108cd576108cc61097d565b5b80604052505050565b60006108e182610827565b91507fffffffffffffffffffffffffffffffffffffffffffffffffffffffffffffffff8214156109145761091361091f565b5b600182019050919050565b7f4e487b7100000000000000000000000000000000000000000000000000000000600052601160045260246000fd5b7f4e487b7100000000000000000000000000000000000000000000000000000000600052602260045260246000fd5b7f4e487b7100000000000000000000000000000000000000000000000000000000600052604160045260246000fd5b6000601f19601f8301169050919050565b6109c681610827565b81146109d157600080fd5b5056fea2646970667358221220417df95feb49bb5d1a9972233178f7de69c3e9780ad35471a1dc2a806bb61aef64736f6c63430008020033",
  "immutableReferences": {},
  "source": "// SPDX-License-Identifier: MIT\r\npragma solidity >=0.8.2 <0.9.0;\r\n\r\ncontract Shin {\r\n    mapping(uint256 => string) public dataMap;\r\n    uint256[] private timestamps;\r\n\r\n    function storeString(string memory value) public {\r\n        uint256 currentTime = block.timestamp;\r\n        dataMap[currentTime] = value;\r\n        timestamps.push(currentTime);\r\n    }\r\n\r\n    function getAllData() public view returns (uint256[] memory, string[] memory) {\r\n        string[] memory values = new string[](timestamps.length);\r\n        for (uint256 i = 0; i < timestamps.length; i++) {\r\n            values[i] = dataMap[timestamps[i]];\r\n        }\r\n        return (timestamps, values);\r\n    }\r\n}\r\n",
  "sourcePath": "D:\\Web3\\Blockchain\\contracts\\Shin.sol",
  "compiler": {
    "name": "solc",
    "version": "0.8.2+commit.661d1103.Emscripten.clang"
  },
  "schemaVersion": "3.4.16",
  "updatedAt": "2025-03-01T15:30:42.910Z",
  "networkType": "ethereum",
  "devdoc": {
    "kind": "dev",
    "methods": {},
    "version": 1
  },
  "userdoc": {
    "kind": "user",
    "methods": {},
    "version": 1
  }
}