{
    "contractName": "Teki",
    "abi": [
        {
            "anonymous": false,
            "inputs": [
                {
                    "indexed": false,
                    "internalType": "uint256",
                    "name": "timestamp",
                    "type": "uint256"
                },
                {
                    "indexed": false,
                    "internalType": "string",
                    "name": "value",
                    "type": "string"
                }
            ],
            "name": "DataStored",
            "type": "event"
        },
        {
            "inputs": [
                {
                    "internalType": "uint256",
                    "name": "",
                    "type": "uint256"
                }
            ],
            "name": "dataMap",
            "outputs": [
                {
                    "internalType": "string",
                    "name": "",
                    "type": "string"
                }
            ],
            "stateMutability": "view",
            "type": "function",
            "constant": true
        },
        {
            "inputs": [
                {
                    "internalType": "string",
                    "name": "value",
                    "type": "string"
                }
            ],
            "name": "storeString",
            "outputs": [],
            "stateMutability": "nonpayable",
            "type": "function"
        },
        {
            "inputs": [],
            "name": "getAllData",
            "outputs": [
                {
                    "internalType": "uint256[]",
                    "name": "",
                    "type": "uint256[]"
                },
                {
                    "internalType": "string[]",
                    "name": "",
                    "type": "string[]"
                }
            ],
            "stateMutability": "view",
            "type": "function",
            "constant": true
        }
    ],
    "bytecode": "0x608060405234801561001057600080fd5b50610a82806100206000396000f3fe608060405234801561001057600080fd5b50600436106100415760003560e01c806308934b94146100465780631bb8305d146100765780632d10fa2814610092575b600080fd5b610060600480360381019061005b9190610569565b6100b1565b60405161006d9190610758565b60405180910390f35b610090600480360381019061008b9190610528565b610151565b005b61009a6101e3565b6040516100a8929190610721565b60405180910390f35b600060205280600052604060002060009150905080546100d0906108eb565b80601f01602080910402602001604051908101604052809291908181526020018280546100fc906108eb565b80156101495780601f1061011e57610100808354040283529160200191610149565b820191906000526020600020905b81548152906001019060200180831161012c57829003601f168201915b505050505081565b600042905081600080838152602001908152602001600020908051906020019061017c929190610408565b5060018190806001815401808255809150506001900390600052602060002001600090919091909150557f56ae0cf797dc5c06b48e3f1f0ac14db02bbbeff12a70e489e5a2403ffc021bb881836040516101d792919061077a565b60405180910390a15050565b606080600060018054905067ffffffffffffffff81111561022d577f4e487b7100000000000000000000000000000000000000000000000000000000600052604160045260246000fd5b60405190808252806020026020018201604052801561026057816020015b606081526020019060019003908161024b5790505b50905060005b6001805490508110156103a957600080600183815481106102b0577f4e487b7100000000000000000000000000000000000000000000000000000000600052603260045260246000fd5b9060005260206000200154815260200190815260200160002080546102d4906108eb565b80601f0160208091040260200160405190810160405280929190818152602001828054610300906108eb565b801561034d5780601f106103225761010080835404028352916020019161034d565b820191906000526020600020905b81548152906001019060200180831161033057829003601f168201915b505050505082828151811061038b577f4e487b7100000000000000000000000000000000000000000000000000000000600052603260045260246000fd5b602002602001018190525080806103a19061094e565b915050610266565b50600181818054806020026020016040519081016040528092919081815260200182805480156103f857602002820191906000526020600020905b8154815260200190600101908083116103e4575b5050505050915092509250509091565b828054610414906108eb565b90600052602060002090601f016020900481019282610436576000855561047d565b82601f1061044f57805160ff191683800117855561047d565b8280016001018555821561047d579182015b8281111561047c578251825591602001919060010190610461565b5b50905061048a919061048e565b5090565b5b808211156104a757600081600090555060010161048f565b5090565b60006104be6104b9846107cf565b6107aa565b9050828152602081018484840111156104d657600080fd5b6104e18482856108a9565b509392505050565b600082601f8301126104fa57600080fd5b813561050a8482602086016104ab565b91505092915050565b60008135905061052281610a35565b92915050565b60006020828403121561053a57600080fd5b600082013567ffffffffffffffff81111561055457600080fd5b610560848285016104e9565b91505092915050565b60006020828403121561057b57600080fd5b600061058984828501610513565b91505092915050565b600061059e8383610691565b905092915050565b60006105b28383610703565b60208301905092915050565b60006105c982610820565b6105d3818561085b565b9350836020820285016105e585610800565b8060005b8581101561062157848403895281516106028582610592565b945061060d83610841565b925060208a019950506001810190506105e9565b50829750879550505050505092915050565b600061063e8261082b565b610648818561086c565b935061065383610810565b8060005b8381101561068457815161066b88826105a6565b97506106768361084e565b925050600181019050610657565b5085935050505092915050565b600061069c82610836565b6106a6818561087d565b93506106b68185602086016108b8565b6106bf81610a24565b840191505092915050565b60006106d582610836565b6106df818561088e565b93506106ef8185602086016108b8565b6106f881610a24565b840191505092915050565b61070c8161089f565b82525050565b61071b8161089f565b82525050565b6000604082019050818103600083015261073b8185610633565b9050818103602083015261074f81846105be565b90509392505050565b6000602082019050818103600083015261077281846106ca565b905092915050565b600060408201905061078f6000830185610712565b81810360208301526107a181846106ca565b90509392505050565b60006107b46107c5565b90506107c0828261091d565b919050565b6000604051905090565b600067ffffffffffffffff8211156107ea576107e96109f5565b5b6107f382610a24565b9050602081019050919050565b6000819050602082019050919050565b6000819050602082019050919050565b600081519050919050565b600081519050919050565b600081519050919050565b6000602082019050919050565b6000602082019050919050565b600082825260208201905092915050565b600082825260208201905092915050565b600082825260208201905092915050565b600082825260208201905092915050565b6000819050919050565b82818337600083830152505050565b60005b838110156108d65780820151818401526020810190506108bb565b838111156108e5576000848401525b50505050565b6000600282049050600182168061090357607f821691505b60208210811415610917576109166109c6565b5b50919050565b61092682610a24565b810181811067ffffffffffffffff82111715610945576109446109f5565b5b80604052505050565b60006109598261089f565b91507fffffffffffffffffffffffffffffffffffffffffffffffffffffffffffffffff82141561098c5761098b610997565b5b600182019050919050565b7f4e487b7100000000000000000000000000000000000000000000000000000000600052601160045260246000fd5b7f4e487b7100000000000000000000000000000000000000000000000000000000600052602260045260246000fd5b7f4e487b7100000000000000000000000000000000000000000000000000000000600052604160045260246000fd5b6000601f19601f8301169050919050565b610a3e8161089f565b8114610a4957600080fd5b5056fea26469706673582212205967bbfc9711c77fb709eccd3e430b092d3ebe973bdac509e48b9f0ae8c6191264736f6c63430008020033",
    "immutableReferences": {},
    "source": "// SPDX-License-Identifier: MIT\r\npragma solidity >=0.8.2 <0.9.0;\r\n\r\ncontract Teki {\r\n    mapping(uint256 => string) public dataMap;\r\n    uint256[] private timestamps;\r\n\r\n    event DataStored(uint256 timestamp, string value);\r\n\r\n    function storeString(string memory value) public {\r\n        uint256 currentTime = block.timestamp;\r\n        dataMap[currentTime] = value;\r\n        timestamps.push(currentTime);\r\n\r\n        emit DataStored(currentTime, value); // Emit event on new data\r\n    }\r\n\r\n    function getAllData() public view returns (uint256[] memory, string[] memory) {\r\n        string[] memory values = new string[](timestamps.length);\r\n        for (uint256 i = 0; i < timestamps.length; i++) {\r\n            values[i] = dataMap[timestamps[i]];\r\n        }\r\n        return (timestamps, values);\r\n    }\r\n}\r\n",
    "sourcePath": "C:\\Users\\VIYOM\\Desktop\\Block\\ShinTeki_Contract\\contracts\\Teki.sol",
    "compiler": {
        "name": "solc",
        "version": "0.8.2+commit.661d1103.Emscripten.clang"
    },
    "schemaVersion": "3.4.16",
    "updatedAt": "2025-03-02T07:06:56.724Z",
    "networkType": "ethereum",
    "devdoc": {
        "kind": "dev",
        "methods": {},
        "version": 1
    },
    "userdoc": {
        "kind": "user",
        "methods": {},
        "version": 1
    }
}